:020000040800F2
:1000000028050020CD000008F3000008F5000008D6
:1000100000000000000000000000000000000000E0
:10002000000000000000000000000000F7000008D1
:100030000000000000000000F9000008FB000008BC
:10004000FD00000800000000FD000008FD000008A1
:10005000FD000008FD000008FD0000085103000835
:1000600000000000FD000008FD000008FD00000881
:10007000FD000008C1140008FD0000080000000099
:100080002D160008FD000008FD000008FD00000816
:10009000FD000008FD000008FD000008FD0000084C
:1000A000FD000008FD000008FD000008FD0000083C
:1000B000C91800082D1900080348854600F08EF87D
:1000C00000480047491D0008280500200C4880F31F
:1000D00008880C480168090E0B4A914205D10B486B
:1000E0000B4901600B480C4901600C4880470C48E3
:1000F0000047FEE7FEE7FEE7FEE7FEE7FEE700005B
:1001000028050020040000001F0000001810024015
:100110000100000000000140000000002914000858
:10012000B900000830B50B4601460020202201240A
:1001300009E00D46D5409D4205D31D469540491B1B
:100140002546954040191546521E002DF1DC30BD64
:1001500070B500242546002801DA01244042002918
:1001600001DA01254942FFF7DDFFAC4200D04042F1
:10017000002C00D0494270BD03460B439B0703D0BF
:1001800009E008C9121F08C0042AFAD203E00B785C
:100190000370401C491C521EF9D27047D2B201E0D4
:1001A0000270401C491EFBD270470022F6E710B5D2
:1001B00013460A4604461946FFF7F0FF204610BDD5
:1001C00030B504460020034600E05B1C934203D296
:1001D000E05CCD5C401BF8D030BD0000064C012532
:1001E000064E05E0E36807CC2B430C3C98471034DF
:1001F000B442F7D3FFF764FF002F0008202F000858
:1002000010B50288121203784B401B06DB0D024C1E
:10021000E35A5A40028010BD002D00080021C94356
:1002200001807047F8B505460E466846FFF7F6FFB1
:10023000002404E0295D6846FFF7E2FF641CB44235
:10024000F8D368460088F8BDF8B506460F4615464F
:100250000024002000900421052000F037F8002140
:10026000012001F0A6FC80210A2001F063F805E0DE
:10027000315D092001F09DFC601CC4B2BC42F7DB7B
:100280000321012001F095FCFF2400BF052000F0B0
:1002900041FE0090601EC4B2002C04D004210098DE
:1002A00008400028F2D0222000F034FE28702120DF
:1002B00000F030FE6870F8BDFF21C943884202D3C8
:1002C0000021014A116070472000002070B50546EA
:1002D0000C46284600F01EFE06463046A043014666
:1002E000284601F066FC70BD00B585B001210846C6
:1002F00000F09EFC0121C80400F07AFC072168464A
:100300000170002141700121817000F02DFA402020
:1003100003900021684601740121C17403214174D6
:1003200003A90A4800F030F90621022000F0E2FF9C
:10033000402001900021684601720C214172012188
:10034000817201A800F028F805B000BD000800483F
:1003500010B5402000F012F8002805D00120034914
:100360000870402000F004F810BD0000CC00002010
:100370000149486170470000000401400146002027
:10038000044A52690A40002A01D0012000E00020FE
:100390007047000000040140002120498279002AB2
:1003A00035D00A46126803689A430B461A600A461B
:1003B000526803689A430B465A60027951180A68DA
:1003C00003681A430A60154A926803689A43134BFC
:1003D0009A601A46D26803689A43104BDA604279F1
:1003E000102A0CD11A46926803681A430B4B9A6084
:1003F0001A46D26803681A43084BDA600DE00749D1
:10040000427951180A6803681A430A6005E00279C4
:1004100051180A6803689A430A6070470004014053
:1004200010B500F091FD10BD0149C8607047000093
:100430000020024030B5044604250B20000400F0E3
:100440008FF80546042D17D10C4800690221084396
:100450000A49086108464461006940210843074988
:1004600008610B20000400F07BF805460348006992
:100470000221884301490861284630BD002002401E
:1004800004200D49C968C907C90F002901D00120FE
:1004900010E00949C96810221140002901D002204A
:1004A00008E00549C96804221140002901D0032051
:1004B00000E004207047000000200240034800696B
:1004C0008021084301490861704700000020024074
:1004D00078B506460C460425002000900B20000449
:1004E00000F03EF80546042D24D11348006901218F
:1004F00008431149086134800B20000400F030F8F3
:100500000546042D10D1B01C0090200C00990880E5
:100510000B20000400F024F8054607480069400855
:1005200040000549086105E00348006940084000B3
:1005300001490861284678BD00200240054800694D
:1005400080210840002804D003480249486003483D
:10055000486070470020024023016745AB89EFCD1A
:1005600010B503460424FFF78BFF044603E0FFF7B2
:1005700087FF04465B1E012C01D1002BF7D1002B15
:1005800000D10524204610BDF0B50A460021002305
:10059000002400BF3DE001258D402B4615681D401D
:1005A0002C469C4234D11579012D02D01579022DAB
:1005B00016D185684F000326BE40B5438560557946
:1005C0004E00B540866835438560858801268E409B
:1005D000B5438580858896798E40B6B2354385804F
:1005E00005684F000326BE40B543056015794E00EF
:1005F000B540066835430560C5684F000326BE4018
:10060000B543C560D5794E00B540C6683543C56071
:10061000491C1029BFD3F0BDF0B5002300244D07BD
:10062000EE0E1546B5402B46CD10AE0005462035E2
:10063000AD594E07F70E0F26BE40B543CE10B6009B
:1006400007462037BD51CD10AE003D46AD591D4384
:100650002C46CD10AD003E467451F0BD0246002040
:10066000138A0B40002B01D0012000E000207047CE
:10067000018570478161704710B50446412C20D137
:1006800008210846FFF722FE3D21112001F091FAD2
:100690008621172001F08DFA7F21262001F089FAAA
:1006A0001E212D2001F085FA00212C2001F081FA75
:1006B0008D212A2001F07DFA3E212B2001F079FACC
:1006C00001E0012010BD0020FCE700001FB513A1D0
:1006D00003C903910290002000900190002402AA17
:1006E0000521302000F0B8FD6A460521102000F0F9
:1006F0007BFD00BF08E06846005D02A9095D8842F5
:1007000000D003E0601CC4B2052CF4DB00BF052C54
:1007100002D1012004B010BD0020FBE75501020307
:10072000AA00000070B50446072000F07DFD0546D4
:100730002946272000F0B0FD40202840002810D096
:10074000602000F071FD212108552120015D621C0F
:10075000612000F049FDFF21E22000F09DFD4020D6
:1007600070BD0020FCE7000000218278002A27D01D
:10077000184A03231B02D21803789B109B00D15800
:1007800002789207D30EFF229A400B4693431946F4
:1007900042789207120E03789B07DB0E9A401143B2
:1007A0000C4A03231B02D21803789B109B00D150E4
:1007B0000278D306DB0E01229A40064B1A6007E04E
:1007C0000278D306DB0E01229A40024B80331A6076
:1007D0007047000000E100E07CB5064600BF01F074
:1007E00087FF00210191009000BF30E01948007898
:1007F000002815D00020174908700846FFF792FF1F
:100800001448203041781F3801F00AF81148203090
:1008100041781F38FFF7C9FC00210E482030417095
:1008200001F04EFF012801D102F0F8F901F060FF5C
:10083000002504462A4601990098201A8A41002181
:10084000801B8A4103D32046FFF736FD00E0CDE749
:1008500000BF7CBDCC00002010B503211420FFF7A1
:1008600035FD10BDF0B587B00546012600240027F0
:1008700000210691142101A8FFF797FC08210846E2
:10088000FFF724FD00210D2001F093F980210E20B7
:10089000FFF71CFD9321684601712021417106A8D4
:1008A00001AB022201A900900C2000F01BF80646C3
:1008B000002E0FD107E001A8005D285501A8005DBA
:1008C0004740601CC4B2042CF5DB01A8005DB842AF
:1008D00000D0012680210E2000F02CFD304607B00C
:1008E000F0BD0000FFB585B006460F46012004901C
:1008F0000020039002900190002500240C2E06D0C9
:100900000E2E09D1122003901020029005E07720CE
:1009100003903020029000E000BF00BF80220398C7
:1009200010430146022001F044F980210420FFF722
:10093000CDFC0021012001F03CF980210A2000F0CB
:10094000F9FC05E0395D092001F033F9601C84B23F
:1009500007988442F6DB3146012001F02AF90C2E7B
:1009600003D180210D2000F0E5FC304C00BF0420B5
:1009700000F0D0FA0546601E84B2002C07D0E807CC
:10098000C00F002803D1029828400028EFD0802112
:100990000D20FFF79BFC002C3DD0062000F0BAFA9A
:1009A0001B210840002834D1049003982840C00738
:1009B000C00F002801D0012004900C2E2BD10A205A
:1009C00000F0A8FA05460C2000F0A4FA4007400FFA
:1009D00001900198002807D0681EC10001980818EE
:1009E00081B20E98018002E0E9000E980180002D8E
:1009F00000D10125122D00DD1225002406E009207A
:100A000000F088FA08990855601C84B2AC42F6DB05
:100A100001E00120049080210C2000F08BFC0021DB
:100A2000012001F0C6F8049809B0F0BD701700006D
:100A300070B588B005460C460126002107911421A7
:100A400002A8FFF7B2FB08210846FFF73FFC072189
:100A50000D2001F0AEF80321142000F06BFC684675
:100A6000057207A802AB012202A900900C20FFF733
:100A700039FF0646002E0AD16846808B102806D121
:100A80006846007A20706846407A607000E001266F
:100A9000304608B070BD10B5012109030920C00619
:100AA000FFF7E8FD0A2000F08BF801210903092077
:100AB000C006FFF7DDFD0A2000F082F801210903DE
:100AC0000920C006FFF7D6FD0A2000F079F80F21B3
:100AD000012001F06EF83D21112001F06AF81E217D
:100AE0002D2001F066F800212C2001F062F88D2104
:100AF0002A2001F05EF83E212B2001F05AF8402117
:100B0000152001F056F8002010BD70B588B00546DC
:100B10000126002400210791142102A8FFF745FBBC
:100B200093216846017270214172002181730BE0AC
:100B3000295D02AAA01C11546946887B295D4840A2
:100B400069468873601CC4B2042CF1DB03AA03322B
:100B5000072102A8FFF778FB08210846FFF7B6FB3C
:100B600007A802AB092202A900900C20FFF7BAFEE9
:100B70000646002E04D16846808B182800D100E07C
:100B80000126304608B070BD1CB50121480400F0B4
:100B90002FF80120C0030090012168460171032154
:100BA000417100218171C17169460920C006FFF7BA
:100BB000EBFC0121C9030920C006FFF759FD1CBD4C
:100BC0003021414388B200BF0146421E90B2002945
:100BD000FAD1704710B501F051FDFFF75CFFFFF748
:100BE0003BFE4120FFF748FD0A20FFF7E9FF10BD5B
:100BF000002905D0054A52690243044B5A6104E0BA
:100C0000024A52698243014B5A6170470010024008
:100C1000002905D0054AD2690243044BDA6104E099
:100C2000024AD2698243014BDA61704700100240E8
:100C3000002905D0054A92690243044B9A6104E0F9
:100C4000024A92698243014B9A6170470010024048
:100C5000FEB5044600250026002002900190009079
:100C60000027864840680C2108400546002D06D024
:100C7000042D07D0082D08D00C2D2CD128E0804859
:100C800020602BE07E48206028E07C4840680F21EF
:100C9000890408400646794840680321C903084092
:100CA0000290B00C861C0298002803D17548374684
:100CB00047430BE07148C06A0007000F401C0190D9
:100CC0006F480199FFF72EFA70430746276005E049
:100CD0006D48206002E06A48206000BF00BF67489E
:100CE0004068F021084005462D096848405D0090A5
:100CF00020680099C8406060604840680721090288
:100D0000084005462D0A6148405D009061680098E2
:100D1000C140A1605948006BFF2101310840884261
:100D200002D05B48E0600DE054484068012189032F
:100D30000840884203D0A0684008E06002E0A06854
:100D40008008E0604D48006B40210840402802D0F8
:100D50005048206102E00120C00320614748006B39
:100D600010210840102802D04548606101E0206849
:100D700060614248006B8007800F002802D1A068A4
:100D8000A06119E03D48006B8007800F012802D167
:100D90002068A06110E03948006B8007800F0228AE
:100DA00002D18003A06107E03448006B8007800F08
:100DB000032801D13248A0613048006B03210904A7
:100DC0000840002802D1A068E06120E02B48006BB9
:100DD00003210904084001210904884202D1206846
:100DE000E06114E02548006B03210904084001215B
:100DF0004904884202D18010E06108E01F48006B7E
:100E0000032109040840884201D11D48E0611B48C4
:100E1000006B032189040840002802D1A0682062E9
:100E200020E01648006B0321890408400121890451
:100E3000884202D12068206214E01048006B032130
:100E4000890408400121C904884202D100112062AE
:100E500008E00A48006B032189040840884201D158
:100E6000074820620548006B80210840802802D096
:100E70000548606200E06762FEBD000000100240AD
:100E800000127A0000093D00006CDC02080000201E
:100E9000809FD5001280000070B505460E460024E4
:100EA000FFF7F9FD31465220FFF7C2FD0446002C42
:100EB00001D0204670BD2846FFF7D4FC0446002C24
:100EC00001D02046F6E72846FFF71FFE0446002C17
:100ED00001D02046EEE72046ECE700001CB50121DA
:100EE0008804FFF785FE20200090012168460171EB
:100EF0000321417100218171C17169460448FFF7E6
:100F000043FB20210248FFF7B3FB00F023FD1CBD8B
:100F10000004004870B5044660007E210840054684
:100F20008035002610210920C006FFF7A1FB2846C6
:100F300000F0D1F800F0AAF8064610210920C006FA
:100F4000FFF798FB304670BD10B500240E49881C91
:100F5000FFF7A2FF0446002C0AD004210A48801C97
:100F6000FFF723F90848002101704170204610BDA9
:100F700004210548801C00F053FC0221024800F0C7
:100F80004FFC2046F3E70000EE00002000B587B0DC
:100F900001218804FFF72CFE01218803FFF738FEAA
:100FA00000220D212A48FFF737FB00220E21284896
:100FB000FFF732FB00220F212548FFF72DFB07200A
:100FC00040030590022168460176002181760121C7
:100FD000C1760321417605A91D48FFF7D5FA012006
:100FE0000003059000216846817601210176C176D3
:100FF0000321417605A91648FFF7C6FA0121090326
:101000001348FFF737FB002168460180FF210531B7
:1010100041800721090281800021C18001810121D5
:1010200049024181102181810021C1810721018272
:101030006946084800F094F801210903054800F0CA
:1010400049F90121034800F073F807B000BD000022
:10105000000400480038004010B5044600BF0221DB
:10106000094800F073F80028F9D02146064800F03E
:101070003BF900BF0121044800F068F80028F9D0CE
:10108000014800F021F910BD0038004070B500257E
:1010900000241CE06006040E20210920C006FFF792
:1010A000E7FA0120FFF78CFD40210920C006FFF779
:1010B000D5FA002801D00120044320210920C006D0
:1010C000FFF7D8FA0120FFF77BFD681CC5B2082D99
:1010D000E0DB204670BD70B50446002525E0802089
:1010E0002040002805D080210920C006FFF7C2FA61
:1010F00004E080210920C006FFF7BAFA0120FFF7BB
:101100005FFD20210920C006FFF7B2FA0120FFF79A
:1011100057FD20210920C006FFF7ACFA0120FFF798
:101120004FFD6006040E681CC5B2082DD7DB70BDEC
:10113000002904D0028840231A43028003E0028879
:10114000014B1A4002807047BFFF0000024600209A
:1011500013890B40002B01D0012000E000207047D4
:1011600010B500220288C1239B011A400B88CC894C
:101170002343CC8823430C8923434C8923438C8904
:1011800023431A4302808288084B1A408B881A43F3
:1011900082800B8A03820288054B1A404B881A43CF
:1011A0000280838B034C2340838310BDFFF000003B
:1011B000FBFF0000FFF700001CB58020009001211C
:1011C000684601710021817103214171694605481A
:1011D000FFF7DAF980210348FFF74AFAFFF7D6FE56
:1011E0001CBD000000080048F8B507460D4616462D
:1011F000012109030B48FFF73BFA3846FFF72CFFA4
:101200000090002405E0FF20FFF726FF3055601C0A
:10121000C4B2AC42F7DB012109030248FFF72AFA06
:101220000098F8BD0004004870B504460121090388
:101230000848FFF71DFA2046FFF70EFFFF20FFF7D3
:101240000BFF0546012109030248FFF713FA284660
:1012500070BD000000040048F8B507460D4614466E
:10126000012109030B48FFF703FA3846FFF7F4FEA4
:101270000090002605E02078641CFFF7EDFE701C4E
:10128000C6B2AE42F7DB012109030248FFF7F2F9CB
:101290000098F8BD0004004870B505460C460121D1
:1012A00009030848FFF7E4F92846FFF7D5FE06468C
:1012B0002046FFF7D1FE012109030248FFF7DAF9C2
:1012C000304670BD00040048014600220A460C3238
:1012D000107870478288034B1A40828082880A43C4
:1012E00082807047FFEF0000002202460C3211702E
:1012F0007047000030B500228B071C0F0F23A3405E
:101300001A460B4B8C10A4001B599343084C8D10AC
:10131000AD00635123468C10A4001B598C07250F88
:101320000446AC402343024C8D10AD00635130BDE8
:101330000800014070B505460C462846FFF7EAFD57
:101340000646304620430146284600F032FC70BD78
:101350000CB500200190009031480068012109047B
:1013600008432F49086000BF2D4800680121490447
:10137000084000900198401C01900098002804D17A
:101380000521090301988842EED125480068012112
:1013900049040840002802D00120009001E000200C
:1013A00000900098012839D111201E4908601C487E
:1013B00040681B49486008464068486008464068E5
:1013C0007F21C903884316494860084640681121B7
:1013D00009040843124948600846006801210906CB
:1013E00008430F49086000BF0D4800680121490605
:1013F00008400028F8D00A48406880088000084962
:10140000486008464068022108430549486000BF1B
:10141000034840680C2108400828F9D10CBD0000A1
:10142000001002400020024010B51B480068012156
:101430000843194908600846406818490840164999
:101440004860084600681649084013490860084685
:1014500000680121890488430F49086008464068F4
:101460003F21090488430C4948600846C06A0009C6
:101470000001C8620846006BFF21543188430649C9
:1014800008630846406B40084000486300208860BD
:10149000FFF75EFF10BD0000001002400CB8FF080F
:1014A000FFFFF6FE10B5FFF76FFB00F091F801F0BB
:1014B00027F900F0B1F9FFF711FDFFF78BFB10BD25
:1014C00010B50121054800F002F9002805D00121DE
:1014D000024800F0D9F801F0C7FA10BD002C014015
:1014E00070B58CB004460025002601214804FFF7A2
:1014F0007FFBFF2001300290022168460173032127
:101500004173002181730121C17302A90920C00622
:10151000FFF73AF8022208210920C006FFF77CF8FD
:101520000D216846017101214171817101A8FFF708
:101530001BF9632C01DC012C01DA0CB070BD2149D0
:1015400021480068FEF7EEFD401E85B2691E61432A
:1015500008466421FEF7E6FD86B20121C802FFF7C6
:1015600067FB002168468184C1840A95818508A8AB
:10157000817309A9154800F011F901221146134899
:1015800000F0B8F8702168460182012141820421EF
:1015900081820696022181830021C183FF210131CE
:1015A00001840021418404A9084800F0ADF801211C
:1015B000064800F07BF80121044800F069F800BFFC
:1015C000BBE7000048E801005C000020002C01405F
:1015D0000EB500F01BF80B4801902F2168460180E2
:1015E0000021418001816946074800F0D7F80122B7
:1015F0001146054800F07EF80121034800F048F844
:101600000EBD00000F2700000004004008B50121B6
:101610000220FFF7FDFA1021684601700321417096
:1016200001218170FFF7A0F808BD000010B5642407
:1016300072B601210F4800F04AF8002818D00121A5
:101640000C4800F021F821460B480068FEF76AFDBF
:10165000002902D1012009490870094800780028B2
:1016600001D10848007804480068401C024908601D
:1016700062B610BD000400402000002040000020A1
:101680004800002050000020CA430282704700003A
:10169000002904D0028801231A43028003E0028853
:1016A000014B1A4002807047FEFF0000002907D05E
:1016B0004422125A0123DB031A4344231A5205E041
:1016C0004422125A53045B0C44221352704730B523
:1016D0000246002000230024158A0D402B469589E0
:1016E0000D402C46002B03D0002C01D0012000E03F
:1016F000002030BD002A03D083890B43838102E0A0
:1017000083898B438381704770B5002400220023B6
:10171000058C1C4E35400584028C8388048B194D42
:101720006F3D2C40B51E2C400D882C43751E2A4061
:101730008D892A434D882A43134DA84208D0134D62
:10174000A84205D0124DA84202D0124DA84212D193
:101750000C4DED1F2A40CD892A430A4DED1E2A402B
:101760008D882A43074DFF3D2B400B4D2B400D8AA2
:101770002B434D8A2B43838004838D684563028409
:1017800070BD0000FEFF0000002C01400040014041
:101790000044014000480140FFFD00000022028893
:1017A000154B984206D001239B07984202D0134B59
:1017B000984203D1124B1A404B881A43114B98425E
:1017C00003D0114B1A400B891A4302804B68C36245
:1017D0000B880385084B984208D00C4B984205D0E3
:1017E0000B4B984202D00B4B984201D18B7A038667
:1017F0000123838270470000002C01400004004058
:101800008FFF000000100040FFFC0000004001407E
:10181000004401400048014010B500F009F810BD37
:1018200070B504460D462946204600F071F870BD9B
:1018300000B589B001214804FFF7DAF90121480415
:10184000FFF7E6F9012202210920C006FEF7E4FEB7
:10185000012203210920C006FEF7DEFE0C200790BE
:10186000022108A80170002181700121C1700321AB
:10187000417007A90920C006FEF786FEE12040025C
:101880000190002002900390049006900C20059097
:1018900001A90B4800F008F90121094800F0A6F859
:1018A00001220849064800F0DEF81C216846017054
:1018B0000221417001218170FEF756FF09B000BD81
:1018C000004400400501050010B500240649074802
:1018D00000F0A2F8002806D0044800F061F9C4B274
:1018E000204600F005F810BD050105000044004049
:1018F00010B504462146054800F057F900BF802185
:10190000024800F07FF80028F9D010BD00440040E4
:1019100070B505460E46002404E0285DFFF7E8FF99
:10192000601CC4B2B442F8DB70BD000010B50024E6
:101930000649074800F070F8002806D0044800F077
:101940002FF9C4B22046FFF7D3FF10BD05010500F3
:10195000004C004000B589B00121C804FFF748F9E8
:101960000121C804FFF754F900220A211C48FEF7A0
:1019700053FE00220B211A48FEF74EFE0320800280
:101980000790022108A80170002181700121C17017
:101990000321417007A91248FEF7F6FDE12040023D
:1019A0000190002002900390049006900C20059076
:1019B00001A90C4800F078F801210A4800F016F857
:1019C00001220949074800F04EF81D2168460170C0
:1019D0000221417001218170FEF7C6FE09B000BDF1
:1019E00000080048004C004005010500002904D013
:1019F000026801231A43026003E0026852085200A1
:101A00000260704702460020D3690B40002B01D0D2
:101A1000012000E00020704770B502460B4600240C
:101A20000021002500201E04350ED9B201268E406B
:101A30003146012D02D11668314006E0022D02D157
:101A40005668314001E0966831401C0C0126A640E2
:101A50003446D6693440002903D0002C01D001203F
:101A600000E0002070BDF8B5034600240026009673
:101A70000025002018460E04340ECEB20096012731
:101A8000009EB7403D46022C01D1001D02E0032C10
:101A900000D10830002A03D006682E43066002E019
:101AA0000668AE430660F8BDF0B58BB004460D463F
:101AB000002700200A90002620684008400020608F
:101AC000666803210903304688430646A868064332
:101AD000666026682D480640E968686808432969F9
:101AE000084306432660A66803210902304688435E
:101AF000064668690643A6606846FFF7A9F82448C9
:101B0000844202D106980A900DE02248844202D114
:101B100007980A9007E02048844202D108980A906A
:101B200001E002980A9020680121C90308400028BA
:101B30000CD029680A9A5000FEF7F4FA0746296883
:101B40000A9A5000FEF7EEFA0E4609E029680A9854
:101B5000FEF7E8FA074629680A98FEF7E3FA0E4608
:101B600028684008B04200D87F1C20680121C903C2
:101B70000840002806D03807460F38460749084075
:101B800030430746A7810BB0F0BD0000F3E9FFFF2B
:101B9000003801400044004000480040F0FF0000D1
:101BA0000146888CC005C00D7047CA05D20D02855C
:101BB000704770B504460D4660007E210840064619
:101BC00010210920C006FEF753FD3046FFF783FAC7
:101BD0002846FFF780FA10210920C006FEF74AFDCB
:101BE00070BD02E008C8121F08C1002AFAD1704770
:101BF0007047002001E001C1121F002AFBD170478D
:101C0000F7B58EB017460024202106A8FEF7CDFABE
:101C1000002005900490039002900190002500267A
:101C200000900F2F02DDFF2011B0F0BD00262AE04A
:101C30000020009018E00F98805D802200990A41F2
:101C40001040002806D06004040C01200443600406
:101C5000040C05E06004040C6004040C012004433F
:101C60000098401CC0B2009000980828E3DBFF20D9
:101C7000000220400012710006AA50547000401C5F
:101C80001454701CC6B2BE42D2DB3807000E059059
:101C90000E9800F07BFC43E0E81004906807400FCA
:101CA0000390681CC5B2E81002906807400F0190CD
:101CB00006A90498085C802203990A411040002874
:101CC00017D006A90298085C802201990A411040A9
:101CD000002808D01548006841000E9800F049FC23
:101CE000681CC5B21CE0114801680E9800F041FC68
:101CF00016E006A90298095C802201980241114071
:101D0000002905D0094801680E9800F025FC07E07D
:101D10000648006841000E9800F01EFC681CC5B221
:101D200005988542B8DB00207EE7000028000020EF
:101D3000F8B507460C461546002629462046FEF70C
:101D400071FA06463046F8BDFFF76EFBFFF7AAFBB7
:101D500007210A48FFF764FD0323002261210120C7
:101D600000F010FB00F058F800F028FF05E0FEF747
:101D700057FBFF202D30FEF72FFDF8E70000002075
:101D800070B504460D460748406902218843690042
:101D9000084304494861012C01D100F0B1F800204A
:101DA00070BD00007000002038B50446002000908F
:101DB00000F020F80546002069460870602028439E
:101DC00048706A460221204600F0BCF8002038BD69
:101DD00070B504460D460648007F20700448027F17
:101DE00001461D312846FEF7C7F9002070BD0000EE
:101DF000700000200249097B0807000F70470000AF
:101E00007000002003494968FF22120111400809AF
:101E10007047000070000020F0B595B00027002446
:101E2000002500260020019000224C21334800F0BC
:101E30001FFB002802D0601E15B0F0BD01224C210E
:101E400002A800F015FB002802D00020C043F3E7F1
:101E5000002101914A27294CA41C3A462146684694
:101E60008088FFF765FF0190A01E01886846808882
:101E7000814200D00125002101914A2702ACA41C17
:101E80003A46214668468088FFF752FF019068462F
:101E900001898088814200D00126012D05D1012EC3
:101EA00003D100F069F80020C6E7012D0DD1012E05
:101EB0000BD04C2202A91148FEF75EF900224C21FA
:101EC0000E4800F0E5FA0020B6E7012D08D0012EFB
:101ED00006D101224C21094800F0DAFA0020ABE7D4
:101EE0004C2202A90548FEF76BF9002804D0012214
:101EF0004C21024800F0CCFA00209DE77000002041
:101F000070B50024002600250D488078401C0C493F
:101F1000887000BF4A260C46A41C3246214628463B
:101F2000FFF706FF0546A01E058000224C2100F0A9
:101F3000AFFA01224C21A01E00F0AAFA002070BDC9
:101F40007000002070B506460C461546202C01DCBA
:101F5000002D02D10020C04370BD06488470224687
:101F60002946C01CFEF708F9012E01D1FFF7C8FF72
:101F70000020F1E79000002008B531A00068009033
:101F800003220021084600F0DBF80022114610462B
:101F900000F0F4F861220021084600F0AFF80721B4
:101FA000002000F0D1F90021084600F09BF9012142
:101FB000002000F0B5F900210846FFF7E1FE0121FD
:101FC000002000F069F80321002000F085F80021CE
:101FD000084600F037F800221146104600F04EF88F
:101FE0000020FFF7E1FE0121002000F039F86A46E9
:101FF0000321002000F054F80021084600F04CF9BD
:102000000021084600F036F91021002000F024F9E4
:102010000121002000F0E4F80021084600F054F906
:102020000121002000F0C8F83221002000F0ECF877
:102030000221002000F002F9FFF762FF002008BD36
:102040002122230070B504460D4604480583012C67
:1020500001D1FFF755FF002070BD00007000002087
:1020600070B504460D460448C576012C01D1FFF732
:1020700047FF002070BD00007000002070B50446CE
:102080000E46154603488576012C01D1FFF738FF2F
:10209000002070BD70000020024600207047000044
:1020A00070B506460C461546052C03DC002D01D004
:1020B000002C02D10020C04370BD064804772246A0
:1020C00029461D30FEF758F8012E01D1FFF718FF01
:1020D0000020F1E77000002070B505460C46064868
:1020E000C0680009000120430349C8602846FFF783
:1020F0005BFE002070BD00007000002070B505463A
:102100000E461446612C01DC4C2C02DA0020C04340
:1021100070BD0A484068FF21090188432101084336
:1021200006494860012E02D1204600F040FC012DF6
:1021300001D1FFF7E5FE0020EAE700007000002073
:1021400070B505460E461446032C02DD0020C04340
:1021500070BD0948406880088000204306494860F7
:10216000012E02D1204600F042FC012D01D1FFF7E3
:10217000C7FE0020ECE700007000002070B50546A7
:102180000E461446022C02DD0020C04370BD0948F3
:1021900040680C218843A100084306494860012E8D
:1021A00002D1204600F035FC012D01D1FFF7A8FE39
:1021B0000020EBE77000002070B505460C46002CAF
:1021C00004D0012C02D00020C04370BD034804722B
:1021D000012D01D1FFF794FE0020F6E7B0000020AA
:1021E00070B505460C46002C04D0012C02D000200E
:1021F000C04370BD03488471012D01D1FFF780FEFB
:102200000020F6E7B000002070B505460C46200718
:10221000000F002804D0F02020400011002802D137
:102220000020C04370BD04488472012D01D1FFF726
:1022300067FE0020F6E70000B000002070B50446FD
:102240000D4604484572012C01D1FFF759FE0020CC
:1022500070BD0000B000002070B504460D46044873
:102260004571012C01D1FFF74BFE002070BD00002D
:10227000B000002070B505460C46032C02DD00209E
:10228000C04370BD03480471012D01D1FFF738FE32
:102290000020F6E7B000002070B505460C46002C83
:1022A00008D0012C06D0022C04D0812C02D00020B2
:1022B000C04370BD0348C470012D01D1FFF720FE5B
:1022C0000020F6E7B000002070B504460D46044833
:1022D000C571012C01D1FFF713FE002070BD000075
:1022E000B000002070B505460C46002C08D0012C2B
:1022F00006D0022C04D0032C02D00020C04370BDB5
:102300000648806818218843E10008430349886033
:10231000012D01D1FFF7F4FD0020F0E7700000204F
:1023200070B504460D4607488068602188436901FE
:10233000084304498860012C01D1FFF7E1FD00202A
:1023400070BD00007000002070B505460C46002CE2
:1023500008D0012C06D0062C04D0072C02D0002077
:10236000C04370BD06488068C008C00020430449CF
:102370008860012D01D1FFF7C3FD0020F1E70000C7
:1023800070000020FEB504460D4616461F46FEF7B7
:1023900013FFFDF7A9FF00BFFEF798F90128FBD155
:1023A000012C1FD1032210491048FDF7E5FE032040
:1023B0000E49491E08700846002100913B463246EE
:1023C000019102902946204600F04CFAFF21E220BC
:1023D000FEF762FFFF21E120FEF75EFF702127205C
:1023E000FEF75AFFFEBD000024000020BD000020C3
:1023F00070B5044600250020FEF716FF0546680864
:1024000040002043054629462020FEF745FF70BDC9
:1024100070B5044600250020FEF706FF0546284655
:102420000221884361000843C5B229462020FEF7F7
:1024300033FF70BDF8B505460F4616461C463946B3
:10244000284600F0F7F9002C08D0002E06D02946C7
:102450002A31C8B232462146FEF7FEFEF8BD70B5FD
:1024600004460D46224629463020FEF7F5FE70BD93
:1024700070B506460C461546E802044A8118224605
:102480003046FDF779FE002070BD00000090000886
:10249000FEB506460C46174601200290FEF74EF8A0
:1024A0003420FDF7C1FF72B6F902294A8818FDF7FA
:1024B000C1FF042801D000200290F80224494018EE
:1024C000244908602046E117890F091889108900FE
:1024D000611A00D0241D2046E117890F09188C10BD
:1024E00000252CE000200190A800315CA800401CD1
:1024F000305C00020918A800801C305C0004091838
:10250000A800C01C305C000608180190A900114A00
:10251000126888180199FDF7DBFF042801D000201C
:1025200002900C4800680068A900401800900199CA
:102530000098884201D000200290681CC5B2A542D4
:10254000D0DB62B6FDF7BAFF6846007AFEBD000038
:10255000009000081C00002070B505460C46012DB7
:1025600003D1204600F0C2FA02E0204600F0DAFA79
:1025700070BD70B505460C46012D03D1204600F014
:10258000EDFA02E0204600F001FB70BDFEB5074603
:102590000026002400250020029001900090314880
:1025A0000068400002903048007801902F4805688C
:1025B0002F48007800902F480078102802D1C602DA
:1025C0002D0C01E00126F60734462B4801683846F9
:1025D000FFF7CFFF234801683846FFF7BDFF09E04A
:1025E000204801683846FFF7C4FF1E480168384696
:1025F000FFF7B2FF0198411EC9B201910028EFD147
:1026000000BF24E028462040002810D06008284061
:10261000002805D038460299FFF7ABFFA40816E062
:10262000104801683846FFF7A4FF64080FE060080F
:102630002840002806D00B4801683846FFF78CFF79
:10264000640804E038460299FFF786FFA408002CCE
:10265000D8D134460098411EC9B200910028D0D18B
:10266000FEBD0000280000203000002034000020C3
:1026700033000020320000202C0000201CB5012176
:102680004804FEF7B5FA0D48009001216846017133
:10269000032141710021817169460920C006FDF7BF
:1026A00073FF402000900021684601710121C17133
:1026B00069460920C006FDF767FF1CBDB010000089
:1026C0000148C07E70470000700000200148807AF9
:1026D00070470000B00000200148C078704700003B
:1026E000B00000200148C07970470000B000002011
:1026F00072B60249086862B67047000020000020E8
:102700001CB5012103208004FEF772FA012080032A
:1027100000900121684601710021817103214171FE
:1027200069460948FDF730FF402000906946074898
:10273000FDF72AFF40210548FDF79CFF0121890391
:102740000148FDF797FF1CBD000800480004004841
:10275000F8B504460D46002600271C20FEF764FD50
:1027600006460120A040C7B23046B8432946A140E2
:102770000843C6B231463C20FEF78EFDF8BDF8B5E1
:1027800005460E46174600241D20FEF74DFD044663
:102790006008400028430446204602218843710017
:1027A00008430446204604218843B90008430446F0
:1027B00021463D20FEF770FDF8BDF8B505460E46F2
:1027C000174600240020FEF72FFD04462046402136
:1027D000884301216940890108430446204620219D
:1027E00088430121714049010843044620461021D5
:1027F00088430121794009010843044621462020ED
:10280000FEF74AFDF8BDF8B504460D460026002740
:102810000120FEF709FD06460120A040C7B2304660
:10282000B8432946A1400843C6B231462120FEF7ED
:1028300033FDF8BDF8B504460D46002600270220FA
:10284000FEF7F2FC06460120A040C7B23046B8436E
:102850002946A1400843C6B231462220FEF71CFD9E
:10286000F8BD0000FFB581B005460E4617460C9C2A
:1028700080213948FDF7FCFE01210020FFF7C3FF4E
:1028800000210120FFF7BFFF00210220FFF7BBFF5F
:1028900000210320FFF7B7FF00210420FFF7B3FF5B
:1028A00000210520FFF7AFFF01210020FFF7C2FF45
:1028B00000210120FFF7BEFF00210220FFF7BAFF31
:1028C00000210320FFF7B6FF00210420FFF7B2FF2D
:1028D00000210520FFF7AEFF0121084600F04EF869
:1028E0002846FFF785FD002D05D101221146002065
:1028F000FFF763FF04E0012200211046FFF75DFFB0
:102900000A990B9800F05CF8012000F027F8237872
:10291000621C01210020FFF78DFD2178601CFFF76C
:102920009EFD01210020FFF713FF304600F03FF825
:10293000049800F05CF8384600F06BF8012211466C
:102940000020FFF71CFF0120FFF762FD80210248F5
:10295000FDF790FE05B0F0BD0008004870B50446D4
:1029600000250320FEF760FC0546A80880002043F0
:10297000054629462320FEF78FFC70BD70B505463D
:102980000E4600240020FEF74FFC04462046082196
:102990008843E90008430446204604218843B100E7
:1029A0000843C4B221462020FEF776FC70BD10B566
:1029B00004466406640E21462520FEF76DFC10BD1A
:1029C00070B505460E4600240420FEF72DFC044693
:1029D00020090001304304462046F02188432901A4
:1029E0000843C4B221462420FEF756FC70BD70B5E2
:1029F000044600250620FEF717FC0546284606215A
:102A0000884361000843C5B229462620FEF744FCEE
:102A100070BD70B5054600240620FEF705FC04468F
:102A2000002D08D120462021884304462046082155
:102A30008843044612E0012D08D120462021884316
:102A40000446204608218843441807E020462021F8
:102A500088434418204608218843044621462620FE
:102A6000FEF71AFC70BD000072B61B480078002803
:102A700016D01A480068002805D1174908700220AE
:102A8000174988610CE015480068401E134908602A
:102A900011480078012803D1022011492031088112
:102AA00010480078002815D00F480068002805D18C
:102AB0000C49087001200A4988610BE00A48006847
:102AC000401E0949086007480078012802D10449DE
:102AD0002031088162B67047480000204C00002079
:102AE00000040048500000205400002000E000BF17
:102AF000094909780029FAD1084909780029F6D14D
:102B000072B60221044A1170022800D9801E0449BD
:102B1000086062B6704700004800002050000020A6
:102B20004C00002000E000BF094909780029FAD1D3
:102B3000084909780029F6D172B60221054A1170B8
:102B4000022800D9801E0449086062B67047000060
:102B500048000020500000205400002000E000BF8A
:102B6000074909780029FAD1064909780029F6D1E0
:102B700072B60121024A11700349086062B67047BB
:102B800048000020500000204C00002000E000BF62
:102B9000074909780029FAD1064909780029F6D1B0
:102BA00072B60121034A11700349086062B670478A
:102BB00048000020500000205400002010B50024E0
:102BC00000F084F8FFF782FD04462046FEF788FCFB
:102BD00000F002F810BD0000302009490860FA201A
:102BE0000849086006200849088010200749087035
:102BF000002007490870074807490860704700002F
:102C0000280000202C00002030000020320000208E
:102C1000330000205555A55A34000020FEB5002091
:102C2000019002900090002400250026244800789E
:102C3000012843D12348002101604160FFF74CFD8A
:102C4000204908700820487001A96846FFF7C0F8BD
:102C5000032201A91B48801CFDF78EFAFFF742FDF5
:102C600018494871FFF7CEF861210F1A0321384641
:102C7000FDF76EFA4007400F124988710E4600BFFB
:102C800003E0305D4540601CC4B2072CF9D30D4809
:102C9000C5710D480078401C0B4908700846007843
:102CA000C007C00F08700822064907480078FEF7E1
:102CB000A7FF72B600200249087062B6FEBD000090
:102CC0004000002038000020580000201CB50121E1
:102CD0008804FDF78DFF03200090012168460171F3
:102CE0000321417100218171C17169460348FDF7DB
:102CF0004BFC03210148FDF7BDFC1CBD000400484E
:102D00000000891112239B322446AD573665BF74EB
:102D1000488CC19D5AAFD3BE6CCAE5DB7EE9F7F89B
:102D20008110080193331A22A5562C47B7753E64CB
:102D3000C99C408DDBBF52AEEDDA64CBFFF976E87B
:102D400002218B30100299132667AF763444BD55AB
:102D50004AADC3BC588ED19F6EEBE7FA7CC8F5D95B
:102D600083310A2091121803A7772E66B5543C458B
:102D7000CBBD42ACD99E508FEFFB66EAFDD874C93B
:102D800004428D5316619F702004A9153227BB366B
:102D90004CCEC5DF5EEDD7FC6888E1997AABF3BA1B
:102DA00085520C4397711E60A1142805B3373A264B
:102DB000CDDE44CFDFFD56ECE9986089FBBB72AAFB
:102DC00006638F7214409D512225AB343006B9172B
:102DD0004EEFC7FE5CCCD5DD6AA9E3B8788AF19BDB
:102DE00087730E6295501C41A3352A24B11638070B
:102DF000CFFF46EEDDDC54CDEBB962A8F99A708BBB
:102E0000088481951AA793B62CC2A5D33EE1B7F0EA
:102E10004008C919522BDB3A644EED5F766DFF7C9A
:102E2000899400859BB712A6ADD224C3BFF136E0CA
:102E3000C1184809D33B5A2AE55E6C4FF77D7E6C7A
:102E40000AA583B4188691972EE3A7F23CC0B5D1AA
:102E50004229CB38500AD91B666FEF7E744CFD5D5A
:102E60008BB502A499961087AFF326E2BDD034C18A
:102E7000C3394A28D11A580BE77F6E6EF55C7C4D3A
:102E80000CC685D71EE597F42880A1913AA3B3B26A
:102E9000444ACD5B5669DF78600CE91D722FFB3E1A
:102EA0008DD604C79FF516E4A9902081BBB332A24A
:102EB000C55A4C4BD7795E68E11C680DF33F7A2EFA
:102EC0000EE787F61CC495D52AA1A3B03882B1932A
:102ED000466BCF7A5448DD59622DEB3C700EF91FDA
:102EE0008FF706E69DD414C5ABB122A0B99230830A
:102EF000C77B4E6AD5585C49E33D6A2CF11E780FBA
:102F0000202F00080000002070000000E21B0008D5
:102F1000902F000870000020B8040000F21B000889
:102F20005374617274210A0000000000010203045E
:102F30000102030406070809000000000000000069
:102F400000FFFFFF2122230000000000000000001E
:102F50000000000000000000000000000000000071
:102F60000000000000000000000000000000000061
:102F7000000000000000000000000000006CDC0207
:102F80000000000000000000010203040607080919
:04000005080000B936
:00000001FF
